:1000000012C0189518951895189518951895189563
:100010003AC2189518951895189518951895189529
:100020001895189518958FE58DBFC0E4E8E34E2E1E
:1000300084E08EBFD4E0F4E05F2EEEEFF3E0A0E6C4
:10004000B0E088278D933197E9F766248FEF81BB65
:10005000A49AA59AA098A198A298B89AB99ABA9A7F
:10006000BB9ABC9ABD9ABE9A80E08FBD81E08EBDDE
:1000700083E086B980E487B9789489B7846089BFC2
:10008000379A8AE08093660088E08093600088E079
:100090008093610088E08093620088E08093630031
:1000A00088E08093640088E080936500E1E0F0E000
:1000B000D6D280E4806487B96AD3AFE6B0E08D938E
:1000C0009C9381E4806487B962D3ADE6B0E08D9300
:1000D0009C9382E4806487B95AD3A1E7B0E08D9302
:1000E0009C93E1E0F0E0BBD28EB5887F8EBDADE69B
:1000F000B0E00D911C912227332744EC50E060E0E2
:1001000070E022D3A8E6B0E00D931D932D933D93AC
:10011000A8E6B0E00D911D912D913C9148EE53E081
:1001200060E070E0A5D2A8E6B0E04D935D936D93DA
:100130007D93A8E6B0E00D911D912D913C9144E096
:1001400050E060E070E0C9D4A8E6B0E00D931D93E4
:100150002D933D930091680044E6CAD4A7E6B0E031
:100160000C9380916700809363000091680044E6DF
:10017000BFD4A7E6B0E08C93A7E6B0E00C914AE0CC
:10018000B7D40C938091670080936400009168005D
:100190004AE0AED4A7E6B0E08C93809167008093EC
:1001A000650081E08EBDAFE6B0E00D911C9140E0AE
:1001B00052E0041B150BAFE6B0E00D931C93AFE6C5
:1001C000B0E00D911C9140E150E02FD2AFE6B0E0DD
:1001D0004D935C9300916F0041E0041BA6E6B0E0F4
:1001E0000C9300916600003081E009F080E08F936D
:1001F0000027ACE6B0E08C9187FB0EF401E040E014
:10020000041781E009F080E09F918923882309F495
:1002100009C081E08093660080916C0080688093C3
:100220006C0020C000916600003081E009F080E0A1
:100230008F930027ACE6B0E08C9187FB0EF401E0D1
:1002400041E0041781E009F080E09F918923882331
:1002500009F408C080E08093660080916C008F777D
:1002600080936C0081E08EBDA1E7B0E00D911C9100
:10027000003150E0150780E010F009F081E08F9325
:10028000A1E7B0E00D911C91043351E0150781E026
:1002900008F080E09F918923882309F493C000919E
:1002A0007900003009F012C0E1E7F0E0D190E08081
:1002B000FF240027D7D207D3E6EAFBE0D7D31ED32B
:1002C000EDE0F0E0A3E7B0E00DD46EC0013009F03E
:1002D0000DC0EAEAFBE0D3D3E3E7F0E09FD265D3B9
:1002E000EDE0F0E0A3E7B0E0FDD35EC0023009F03E
:1002F00019C0E3E7F0E097D2EEEAFBE0B7D3FED215
:10030000EDE0F0E0A3E7B0E0EDD3E2EBFBE0B7D344
:10031000E3E7F0E083D258D3EDE0F0E0A3E7B0E00C
:10032000E1D342C0033009F00FC0E3E7F0E032D47C
:10033000EDE0F0E0A3E7B0E0D5D3E3E7F0E030D2C2
:10034000A8E7B0E0DC9230C0043009F00FC00091A3
:10035000770040917800040FA7E7B0E00C93A7E77F
:10036000B0E00C9142E0C4D30C931EC0053009F0FC
:100370001BC00091770044E6BBD3A0E6B0E00C932D
:100380000091770044E6B4D3A1E6B0E08C93A1E6F7
:10039000B0E00C914AE0ACD30C93009177004AE0B6
:1003A000A7D3A2E6B0E08C93A9E7B0E08C918F5F71
:1003B0008C9300917900063009F003C080E08093AF
:1003C00079002DC0A1E7B0E00D911C91013150E002
:1003D000150708F00DC08AE0809360008AE08093E2
:1003E00061008AE08093620080E08093790017C00A
:1003F000A1E7B0E00D911C91033351E0150710F017
:1004000009F001C00CC08AE0809360008AE080930C
:1004100061008AE08093620080E08093790049CE99
:10042000F894FFCFA881B9810C910B3008F00AC075
:10043000E0ECF5E0A881B9818C919927A2E3B0E0C6
:1004400049D302C08FEF82BB0895A881B9810C9176
:100450000B3008F013C0ECECF5E0A6E6B0E08C91B0
:100460009927A2E3B0E036D3E8EDF5E0A6E6B0E0E8
:100470008C919927A5E3B0E02DD304C08FEF82BB08
:100480008FEF85BB08950F921F922F923F924F924C
:100490005F927F92AF92BF920F931F932F933F93E0
:1004A0004F935F936F937F938F939F93AF93BF937C
:1004B000CF93DF93EF93FF938FB78F9388EF8DBD2B
:1004C00080E38CBDC09AC19AC29AC39AC49AC59A55
:1004D000C69A00917A00003009F008C0E0E6F0E02A
:1004E000FA93EA939FDF2296C09841C0013009F049
:1004F00008C0E1E6F0E0FA93EA9394DF2296C1980F
:1005000036C0023009F008C0E2E6F0E0FA93EA9360
:1005100089DF2296C2982BC0033009F008C0E6E6B6
:10052000F0E0FA93EA9391DF2296C39820C004305A
:1005300009F008C0E3E6F0E0FA93EA9373DF22964D
:10054000C49815C0053009F008C0E4E6F0E0FA935D
:10055000EA9368DF2296C5980AC0063009F007C002
:10056000E5E6F0E0FA93EA935DDF2296C698AAE703
:10057000B0E08C918F5F8C9300917A00073009F086
:1005800003C080E080937A008F918FBFFF91EF913D
:10059000DF91CF91BF91AF919F918F917F916F919B
:1005A0005F914F913F912F911F910F91BF90AF900D
:1005B0007F905F904F903F902F901F900F901895D5
:1005C00040792430191202780010BF00FFFEFCF8B9
:1005D000F0E0C080000000007F7F7F7F7F7F7F7F13
:1005E0007F6F4F0000FC10D0089503D01ED001F89B
:1005F000F9CF0024E89457FF02C009D0689400F8AE
:100600000BD010F80124089502D009D00895509518
:1006100040954F5F5F4F0895E89417FF0895009548
:1006200010950F5F1F4F68940895352F242FE8947D
:10063000452B11F468940895512F402F002711275E
:1006400080E1440F551F001F111F021B130B416057
:1006500018F4020F131F4E7F8A9599F7089588EEBC
:1006600093E063D03197D9F7089500FC05D0089541
:1006700030D005D001F8F9CF37D03FD00895842F7E
:10068000952FA62FB72FE894452B462B472B11F417
:1006900068940895402F512F622F732F0027112740
:1006A00022273327F0E2440F551F661F771F001FD4
:1006B000111F221F331F081B190B2A0B3B0B416014
:1006C00028F4080F191F2A1F3B1F4E7FFA9559F770
:1006D00008950024E89477FF02C006D0689400F8DB
:1006E00009D010F80124089512D04F5F5F4F6F4F6B
:1006F0007F4F0895E89437FF089500951095209551
:1007000030950F5F1F4F2F4F3F4F689408954095CE
:1007100050956095709508953197F1F70895689414
:1007200062F80895E89462F80895EF93FF93EE2736
:10073000E82BE92B31F0EAEFF0E03197F1F7019780
:10074000D1F7FF91EF9108950F921F922F92C80158
:10075000D901489F80014A9F90014B9F202C499FBF
:10076000100D211D321D5A9F202C589F100D211D48
:10077000321D599F200D311D689F200D311D699F2D
:10078000300D789F300D2F901F900F900895369A5E
:100790003699FECF369A3699FECF84B195B1089539
:1007A0003DD0992711278F2D880F80E8F82A802FB8
:1007B000881F08F41FEF41F08F57082F07FD04C072
:1007C000003240F08FEF01C08827982FD82EE82EF6
:1007D000F82E09C08FE1801B082FF694E794D79478
:1007E00097950A95D1F7112351F09095D094E09404
:1007F000F09481E0980F8827D81EE81EF81E0F2D70
:10080000FE2CED2CD92E0895D094E094F09491E034
:10081000D90E9927E91EF91E10950895D190E190FF
:10082000F190019108952191319141915191089553
:10083000102F90E8FF0C001F0927990FF7941078EC
:10084000652F90E8440F551F5927990F47956078F9
:1008500000380895FF0C90E89027110F9795F794B2
:10086000092F0895102FBD2CDE2CEF2CF02E112314
:100870004AF4B094D094E094F0949FEFB91AD90A56
:10088000E90AF90A0EE1FF2039F4FE2CED2CDB2CED
:10089000BB240850C2F766C032F00A95BB0CDD1CC1
:1008A000EE1CFF1CF9CF01D0D5CFB7FE089590E81C
:1008B000B91611F4D0FE08959FEFD91AE90AF90A82
:1008C00009F403950895502F2D2D3E2D4F2D612FA6
:1008D00008952DEC3CEC4CEC5DE366270FC09EDFE9
:1008E000F2DFDD24EE2490E8F92E0FE307C09BDF52
:1008F00005C02227332740E251E46627552351F1F2
:10090000002381F195DF71F11627005850580894A3
:10091000050B18F407FD03C025C007FD23C046954D
:1009200037952795F694E794D79422D0FF202AF0A4
:10093000DD0CEE1CFF1C015073F09D2D969548F0C8
:10094000DD203AF4EE202AF491E0D90E9927E91E31
:10095000F91E80CF07C09FE7092FF92A9FEFD92EF4
:10096000E92E0895DD24EE24FF24002711270895A1
:100970009F929924AA24BB2488E1D216E306F406A8
:1009800028F0D21AE30AF40A089401C08894991C4A
:10099000AA1CBB1CDD0CEE1CFF1C8A9571F7D92C20
:1009A000EA2CFB2C9F9008953EDF42DF503829F05F
:1009B00090E869270CC00AF045D04CCF5FE32227AE
:1009C0003327442701C02FDF33DF5038B1F300381D
:1009D00099F3902F951B8BF312F434D0FACF983102
:1009E00018F0222733274427983028F0232F342F5C
:1009F00044279850F9CF992329F0469537952795A4
:100A00009A95D9F7912F962742F014D0B0F6F79423
:100A1000E794D7940F5F8BF69ECF10D051F008F477
:100A2000F3DEFF2052F2DD0CEE1CFF1C0150CBF771
:100A300092CF98CFD20EE31EF41E0895D21AE30A85
:100A4000F40A0895DF92EF92FF920F931F93D22E34
:100A5000E32EF42E052F162F6F915F914F913F914A
:100A60002F910895C895319600200895FBDFD02C72
:100A7000F9DFE02CF7DFF02CF5DF002D0895F2DF31
:100A8000202DF0DF302DEEDF402DECDF502D0895CE
:100A900007FB00680EF40F7757FB50680EF45F7782
:100AA00007FD02C057FF05C0D216E306F40605078E
:100AB00008952D153E054F055007089591E005C096
:100AC00092E003C094E001C098E0CCDF0D929A95CB
:100AD000E1F70895E80FF91FF1CF041B150B260B62
:100AE000370B089594E081918D939A95E1F70895DD
:100AF000FF93881BF9E0001FFA9511F4FF91089508
:100B0000881F841B18F4840F8894F5CF0894F3CFC2
:100B100085DE80E003C082DE802F8078882321F08C
:100B2000DF92EF92FF920F938F9382DE802F839557
:100B300012F418DF1BC080958A95885E0AF415C0F0
:100B400088501AF40CD0D92210C0DD2488501AF431
:100B500006D0E9220AC0EE2402D0F92206C09FEF97
:100B60008770990F8A95EAF7089574DE8F9188232C
:100B7000D9F35F914F913F912F910F9389DF0F919F
:100B800099F390F302D050681FCF5FE340E833271A
:100B90002227089543DE0F930F7710DFBDDF8F917B
:100BA0008078082B0895000080440000803F3B605F
:060BB00058C3B0A302438C
:00000001FF
